{
  "contractName": "Award",
  "abi": [
    {
      "inputs": [
        {
          "internalType": "address",
          "name": "",
          "type": "address"
        }
      ],
      "name": "entrepreneurs",
      "outputs": [
        {
          "internalType": "string",
          "name": "name",
          "type": "string"
        },
        {
          "internalType": "address",
          "name": "account",
          "type": "address"
        },
        {
          "internalType": "uint256",
          "name": "points",
          "type": "uint256"
        }
      ],
      "stateMutability": "view",
      "type": "function",
      "constant": true
    },
    {
      "inputs": [
        {
          "internalType": "string",
          "name": "_name",
          "type": "string"
        }
      ],
      "name": "createEntrepreneur",
      "outputs": [],
      "stateMutability": "nonpayable",
      "type": "function"
    },
    {
      "inputs": [
        {
          "internalType": "address",
          "name": "_entrepreneur",
          "type": "address"
        }
      ],
      "name": "awardPoints",
      "outputs": [],
      "stateMutability": "nonpayable",
      "type": "function"
    },
    {
      "inputs": [
        {
          "internalType": "address",
          "name": "_entrepreneur",
          "type": "address"
        }
      ],
      "name": "getPoints",
      "outputs": [
        {
          "internalType": "uint256",
          "name": "",
          "type": "uint256"
        }
      ],
      "stateMutability": "view",
      "type": "function",
      "constant": true
    },
    {
      "inputs": [],
      "name": "getEntrepreneurs",
      "outputs": [
        {
          "components": [
            {
              "internalType": "string",
              "name": "name",
              "type": "string"
            },
            {
              "internalType": "address",
              "name": "account",
              "type": "address"
            },
            {
              "internalType": "uint256",
              "name": "points",
              "type": "uint256"
            }
          ],
          "internalType": "struct Award.Entrepreneur[]",
          "name": "",
          "type": "tuple[]"
        }
      ],
      "stateMutability": "view",
      "type": "function",
      "constant": true
    },
    {
      "inputs": [
        {
          "internalType": "address",
          "name": "_entrepreneur",
          "type": "address"
        }
      ],
      "name": "getName",
      "outputs": [
        {
          "internalType": "string",
          "name": "",
          "type": "string"
        }
      ],
      "stateMutability": "view",
      "type": "function",
      "constant": true
    }
  ],
  "bytecode": "0x608060405234801561001057600080fd5b50611260806100206000396000f3fe608060405234801561001057600080fd5b50600436106100625760003560e01c80632a09dfeb146100675780635f003fc1146100835780635fd4b08a146100a1578063903241cb146100d1578063ebea12cc14610103578063ee204abb1461011f575b600080fd5b610081600480360381019061007c9190610920565b61014f565b005b61008b61028f565b6040516100989190610b17565b60405180910390f35b6100bb60048036038101906100b69190610920565b61054e565b6040516100c89190610b83565b60405180910390f35b6100eb60048036038101906100e69190610920565b610621565b6040516100fa93929190610bc3565b60405180910390f35b61011d60048036038101906101189190610d36565b6106f3565b005b61013960048036038101906101349190610920565b61082c565b6040516101469190610d7f565b60405180910390f35b600160003373ffffffffffffffffffffffffffffffffffffffff1673ffffffffffffffffffffffffffffffffffffffff16815260200190815260200160002060009054906101000a900460ff16156101dc576040517f08c379a00000000000000000000000000000000000000000000000000000000081526004016101d390610de6565b60405180910390fd5b60016000808373ffffffffffffffffffffffffffffffffffffffff1673ffffffffffffffffffffffffffffffffffffffff168152602001908152602001600020600201600082825461022e9190610e35565b9250508190555060018060003373ffffffffffffffffffffffffffffffffffffffff1673ffffffffffffffffffffffffffffffffffffffff16815260200190815260200160002060006101000a81548160ff02191690831515021790555050565b6060600060025467ffffffffffffffff8111156102af576102ae610c0b565b5b6040519080825280602002602001820160405280156102e857816020015b6102d5610877565b8152602001906001900390816102cd5790505b5090506000805b60025481101561054557600073ffffffffffffffffffffffffffffffffffffffff1660008085848151811061032757610326610e69565b5b60200260200101516020015173ffffffffffffffffffffffffffffffffffffffff1673ffffffffffffffffffffffffffffffffffffffff16815260200190815260200160002060010160009054906101000a900473ffffffffffffffffffffffffffffffffffffffff1673ffffffffffffffffffffffffffffffffffffffff1614610532576000808483815181106103c2576103c1610e69565b5b60200260200101516020015173ffffffffffffffffffffffffffffffffffffffff1673ffffffffffffffffffffffffffffffffffffffff16815260200190815260200160002060405180606001604052908160008201805461042390610ec7565b80601f016020809104026020016040519081016040528092919081815260200182805461044f90610ec7565b801561049c5780601f106104715761010080835404028352916020019161049c565b820191906000526020600020905b81548152906001019060200180831161047f57829003601f168201915b505050505081526020016001820160009054906101000a900473ffffffffffffffffffffffffffffffffffffffff1673ffffffffffffffffffffffffffffffffffffffff1673ffffffffffffffffffffffffffffffffffffffff16815260200160028201548152505083838151811061051857610517610e69565b5b6020026020010181905250818061052e90610ef8565b9250505b808061053d90610ef8565b9150506102ef565b50819250505090565b60606000808373ffffffffffffffffffffffffffffffffffffffff1673ffffffffffffffffffffffffffffffffffffffff168152602001908152602001600020600001805461059c90610ec7565b80601f01602080910402602001604051908101604052809291908181526020018280546105c890610ec7565b80156106155780601f106105ea57610100808354040283529160200191610615565b820191906000526020600020905b8154815290600101906020018083116105f857829003601f168201915b50505050509050919050565b600060205280600052604060002060009150905080600001805461064490610ec7565b80601f016020809104026020016040519081016040528092919081815260200182805461067090610ec7565b80156106bd5780601f10610692576101008083540402835291602001916106bd565b820191906000526020600020905b8154815290600101906020018083116106a057829003601f168201915b5050505050908060010160009054906101000a900473ffffffffffffffffffffffffffffffffffffffff16908060020154905083565b6000815111610737576040517f08c379a000000000000000000000000000000000000000000000000000000000815260040161072e90610f8c565b60405180910390fd5b60405180606001604052808281526020013373ffffffffffffffffffffffffffffffffffffffff16815260200160008152506000803373ffffffffffffffffffffffffffffffffffffffff1673ffffffffffffffffffffffffffffffffffffffff16815260200190815260200160002060008201518160000190816107bc9190611158565b5060208201518160010160006101000a81548173ffffffffffffffffffffffffffffffffffffffff021916908373ffffffffffffffffffffffffffffffffffffffff160217905550604082015181600201559050506002600081548092919061082490610ef8565b919050555050565b60008060008373ffffffffffffffffffffffffffffffffffffffff1673ffffffffffffffffffffffffffffffffffffffff168152602001908152602001600020600201549050919050565b604051806060016040528060608152602001600073ffffffffffffffffffffffffffffffffffffffff168152602001600081525090565b6000604051905090565b600080fd5b600080fd5b600073ffffffffffffffffffffffffffffffffffffffff82169050919050565b60006108ed826108c2565b9050919050565b6108fd816108e2565b811461090857600080fd5b50565b60008135905061091a816108f4565b92915050565b600060208284031215610936576109356108b8565b5b60006109448482850161090b565b91505092915050565b600081519050919050565b600082825260208201905092915050565b6000819050602082019050919050565b600081519050919050565b600082825260208201905092915050565b60005b838110156109b3578082015181840152602081019050610998565b60008484015250505050565b6000601f19601f8301169050919050565b60006109db82610979565b6109e58185610984565b93506109f5818560208601610995565b6109fe816109bf565b840191505092915050565b610a12816108e2565b82525050565b6000819050919050565b610a2b81610a18565b82525050565b60006060830160008301518482036000860152610a4e82826109d0565b9150506020830151610a636020860182610a09565b506040830151610a766040860182610a22565b508091505092915050565b6000610a8d8383610a31565b905092915050565b6000602082019050919050565b6000610aad8261094d565b610ab78185610958565b935083602082028501610ac985610969565b8060005b85811015610b055784840389528151610ae68582610a81565b9450610af183610a95565b925060208a01995050600181019050610acd565b50829750879550505050505092915050565b60006020820190508181036000830152610b318184610aa2565b905092915050565b600082825260208201905092915050565b6000610b5582610979565b610b5f8185610b39565b9350610b6f818560208601610995565b610b78816109bf565b840191505092915050565b60006020820190508181036000830152610b9d8184610b4a565b905092915050565b610bae816108e2565b82525050565b610bbd81610a18565b82525050565b60006060820190508181036000830152610bdd8186610b4a565b9050610bec6020830185610ba5565b610bf96040830184610bb4565b949350505050565b600080fd5b600080fd5b7f4e487b7100000000000000000000000000000000000000000000000000000000600052604160045260246000fd5b610c43826109bf565b810181811067ffffffffffffffff82111715610c6257610c61610c0b565b5b80604052505050565b6000610c756108ae565b9050610c818282610c3a565b919050565b600067ffffffffffffffff821115610ca157610ca0610c0b565b5b610caa826109bf565b9050602081019050919050565b82818337600083830152505050565b6000610cd9610cd484610c86565b610c6b565b905082815260208101848484011115610cf557610cf4610c06565b5b610d00848285610cb7565b509392505050565b600082601f830112610d1d57610d1c610c01565b5b8135610d2d848260208601610cc6565b91505092915050565b600060208284031215610d4c57610d4b6108b8565b5b600082013567ffffffffffffffff811115610d6a57610d696108bd565b5b610d7684828501610d08565b91505092915050565b6000602082019050610d946000830184610bb4565b92915050565b7f596f75206861766520616c726561647920766f7465642e000000000000000000600082015250565b6000610dd0601783610b39565b9150610ddb82610d9a565b602082019050919050565b60006020820190508181036000830152610dff81610dc3565b9050919050565b7f4e487b7100000000000000000000000000000000000000000000000000000000600052601160045260246000fd5b6000610e4082610a18565b9150610e4b83610a18565b9250828201905080821115610e6357610e62610e06565b5b92915050565b7f4e487b7100000000000000000000000000000000000000000000000000000000600052603260045260246000fd5b7f4e487b7100000000000000000000000000000000000000000000000000000000600052602260045260246000fd5b60006002820490506001821680610edf57607f821691505b602082108103610ef257610ef1610e98565b5b50919050565b6000610f0382610a18565b91507fffffffffffffffffffffffffffffffffffffffffffffffffffffffffffffffff8203610f3557610f34610e06565b5b600182019050919050565b7f4e616d65206d757374206e6f7420626520656d70747900000000000000000000600082015250565b6000610f76601683610b39565b9150610f8182610f40565b602082019050919050565b60006020820190508181036000830152610fa581610f69565b9050919050565b60008190508160005260206000209050919050565b60006020601f8301049050919050565b600082821b905092915050565b60006008830261100e7fffffffffffffffffffffffffffffffffffffffffffffffffffffffffffffffff82610fd1565b6110188683610fd1565b95508019841693508086168417925050509392505050565b6000819050919050565b600061105561105061104b84610a18565b611030565b610a18565b9050919050565b6000819050919050565b61106f8361103a565b61108361107b8261105c565b848454610fde565b825550505050565b600090565b61109861108b565b6110a3818484611066565b505050565b5b818110156110c7576110bc600082611090565b6001810190506110a9565b5050565b601f82111561110c576110dd81610fac565b6110e684610fc1565b810160208510156110f5578190505b61110961110185610fc1565b8301826110a8565b50505b505050565b600082821c905092915050565b600061112f60001984600802611111565b1980831691505092915050565b6000611148838361111e565b9150826002028217905092915050565b61116182610979565b67ffffffffffffffff81111561117a57611179610c0b565b5b6111848254610ec7565b61118f8282856110cb565b600060209050601f8311600181146111c257600084156111b0578287015190505b6111ba858261113c565b865550611222565b601f1984166111d086610fac565b60005b828110156111f8578489015182556001820191506020850194506020810190506111d3565b868310156112155784890151611211601f89168261111e565b8355505b6001600288020188555050505b50505050505056fea26469706673582212202aa76071098741fc4206bd0e2873b736156e217a3f80105e995288382ae3754b64736f6c63430008110033",
  "immutableReferences": {},
  "source": "//SPDX-License-Identifier: MIT\npragma solidity ^0.8.0;\n\ncontract Award {\n    struct Entrepreneur {\n        string name;\n        address account;\n        uint points;\n    }\n\n    mapping(address => Entrepreneur) public entrepreneurs;\n    mapping(address => bool) hasVoted;\n    uint numEntrepreneurs;\n\n    function createEntrepreneur(string memory _name) public {\n        require(bytes(_name).length > 0, \"Name must not be empty\");\n        entrepreneurs[msg.sender] = Entrepreneur(_name, msg.sender, 0);\n        numEntrepreneurs++;\n    }\n\n    function awardPoints(address _entrepreneur) public {\n        require(!hasVoted[msg.sender], \"You have already voted.\");\n        entrepreneurs[_entrepreneur].points += 1;\n        hasVoted[msg.sender] = true;\n    }\n\n    function getPoints(address _entrepreneur) public view returns (uint) {\n        return entrepreneurs[_entrepreneur].points;\n    }\n\n    function getEntrepreneurs() public view returns (Entrepreneur[] memory) {\n        Entrepreneur[] memory entrepreneurList = new Entrepreneur[](numEntrepreneurs);\n        uint index = 0;\n        for (uint i = 0; i < numEntrepreneurs; i++) {\n            if (entrepreneurs[entrepreneurList[i].account].account != address(0)) {\n                entrepreneurList[index] = entrepreneurs[entrepreneurList[i].account];\n                index++;\n            }\n        }\n\n        return entrepreneurList;\n    }\n\n    function getName(address _entrepreneur) public view returns (string memory) {\n        return entrepreneurs[_entrepreneur].name;\n    }\n}\n",
  "sourcePath": "/Users/anuragravindramahajan/InvestUp/investup/contracts/award.sol",
  "compiler": {
    "name": "solc",
    "version": "0.8.17+commit.8df45f5f.Emscripten.clang"
  },
  "schemaVersion": "3.4.11",
  "updatedAt": "2023-04-07T08:14:43.628Z",
  "networkType": "ethereum",
  "devdoc": {
    "kind": "dev",
    "methods": {},
    "version": 1
  },
  "userdoc": {
    "kind": "user",
    "methods": {},
    "version": 1
  }
}