{
  "contractName": "Award",
  "abi": [
    {
      "inputs": [
        {
          "internalType": "uint256",
          "name": "",
          "type": "uint256"
        }
      ],
      "name": "entrepreneurAddresses",
      "outputs": [
        {
          "internalType": "address",
          "name": "",
          "type": "address"
        }
      ],
      "stateMutability": "view",
      "type": "function",
      "constant": true
    },
    {
      "inputs": [
        {
          "internalType": "address",
          "name": "",
          "type": "address"
        }
      ],
      "name": "entrepreneurs",
      "outputs": [
        {
          "internalType": "string",
          "name": "name",
          "type": "string"
        },
        {
          "internalType": "address",
          "name": "account",
          "type": "address"
        },
        {
          "internalType": "uint256",
          "name": "points",
          "type": "uint256"
        }
      ],
      "stateMutability": "view",
      "type": "function",
      "constant": true
    },
    {
      "inputs": [
        {
          "internalType": "string",
          "name": "_name",
          "type": "string"
        }
      ],
      "name": "createEntrepreneur",
      "outputs": [],
      "stateMutability": "nonpayable",
      "type": "function"
    },
    {
      "inputs": [],
      "name": "getEntrepreneurs",
      "outputs": [
        {
          "components": [
            {
              "internalType": "string",
              "name": "name",
              "type": "string"
            },
            {
              "internalType": "address",
              "name": "account",
              "type": "address"
            },
            {
              "internalType": "uint256",
              "name": "points",
              "type": "uint256"
            }
          ],
          "internalType": "struct Award.Entrepreneur[]",
          "name": "",
          "type": "tuple[]"
        }
      ],
      "stateMutability": "view",
      "type": "function",
      "constant": true
    },
    {
      "inputs": [
        {
          "internalType": "address",
          "name": "_entrepreneur",
          "type": "address"
        }
      ],
      "name": "awardPoints",
      "outputs": [],
      "stateMutability": "nonpayable",
      "type": "function"
    }
  ],
  "bytecode": "0x608060405234801561001057600080fd5b506111c2806100206000396000f3fe608060405234801561001057600080fd5b50600436106100575760003560e01c80632a09dfeb1461005c5780633a0235e7146100785780635f003fc1146100a8578063903241cb146100c6578063ebea12cc146100f8575b600080fd5b6100766004803603810190610071919061084b565b610114565b005b610092600480360381019061008d91906108ae565b610254565b60405161009f91906108ea565b60405180910390f35b6100b0610287565b6040516100bd9190610ac5565b60405180910390f35b6100e060048036038101906100db919061084b565b610543565b6040516100ef93929190610b40565b60405180910390f35b610112600480360381019061010d9190610cb3565b610615565b005b600160003373ffffffffffffffffffffffffffffffffffffffff1673ffffffffffffffffffffffffffffffffffffffff16815260200190815260200160002060009054906101000a900460ff16156101a1576040517f08c379a000000000000000000000000000000000000000000000000000000000815260040161019890610d48565b60405180910390fd5b60016000808373ffffffffffffffffffffffffffffffffffffffff1673ffffffffffffffffffffffffffffffffffffffff16815260200190815260200160002060020160008282546101f39190610d97565b9250508190555060018060003373ffffffffffffffffffffffffffffffffffffffff1673ffffffffffffffffffffffffffffffffffffffff16815260200190815260200160002060006101000a81548160ff02191690831515021790555050565b60036020528060005260406000206000915054906101000a900473ffffffffffffffffffffffffffffffffffffffff1681565b6060600060025467ffffffffffffffff8111156102a7576102a6610b88565b5b6040519080825280602002602001820160405280156102e057816020015b6102cd6107a2565b8152602001906001900390816102c55790505b5090506000805b60025481101561053a5760006003600083815260200190815260200160002060009054906101000a900473ffffffffffffffffffffffffffffffffffffffff169050600073ffffffffffffffffffffffffffffffffffffffff166000808373ffffffffffffffffffffffffffffffffffffffff1673ffffffffffffffffffffffffffffffffffffffff16815260200190815260200160002060010160009054906101000a900473ffffffffffffffffffffffffffffffffffffffff1673ffffffffffffffffffffffffffffffffffffffff1614610526576000808273ffffffffffffffffffffffffffffffffffffffff1673ffffffffffffffffffffffffffffffffffffffff16815260200190815260200160002060405180606001604052908160008201805461041790610dfa565b80601f016020809104026020016040519081016040528092919081815260200182805461044390610dfa565b80156104905780601f1061046557610100808354040283529160200191610490565b820191906000526020600020905b81548152906001019060200180831161047357829003601f168201915b505050505081526020016001820160009054906101000a900473ffffffffffffffffffffffffffffffffffffffff1673ffffffffffffffffffffffffffffffffffffffff1673ffffffffffffffffffffffffffffffffffffffff16815260200160028201548152505084848151811061050c5761050b610e2b565b5b6020026020010181905250828061052290610e5a565b9350505b50808061053290610e5a565b9150506102e7565b50819250505090565b600060205280600052604060002060009150905080600001805461056690610dfa565b80601f016020809104026020016040519081016040528092919081815260200182805461059290610dfa565b80156105df5780601f106105b4576101008083540402835291602001916105df565b820191906000526020600020905b8154815290600101906020018083116105c257829003601f168201915b5050505050908060010160009054906101000a900473ffffffffffffffffffffffffffffffffffffffff16908060020154905083565b6000815111610659576040517f08c379a000000000000000000000000000000000000000000000000000000000815260040161065090610eee565b60405180910390fd5b60405180606001604052808281526020013373ffffffffffffffffffffffffffffffffffffffff16815260200160008152506000803373ffffffffffffffffffffffffffffffffffffffff1673ffffffffffffffffffffffffffffffffffffffff16815260200190815260200160002060008201518160000190816106de91906110ba565b5060208201518160010160006101000a81548173ffffffffffffffffffffffffffffffffffffffff021916908373ffffffffffffffffffffffffffffffffffffffff160217905550604082015181600201559050503360036000600254815260200190815260200160002060006101000a81548173ffffffffffffffffffffffffffffffffffffffff021916908373ffffffffffffffffffffffffffffffffffffffff1602179055506002600081548092919061079a90610e5a565b919050555050565b604051806060016040528060608152602001600073ffffffffffffffffffffffffffffffffffffffff168152602001600081525090565b6000604051905090565b600080fd5b600080fd5b600073ffffffffffffffffffffffffffffffffffffffff82169050919050565b6000610818826107ed565b9050919050565b6108288161080d565b811461083357600080fd5b50565b6000813590506108458161081f565b92915050565b600060208284031215610861576108606107e3565b5b600061086f84828501610836565b91505092915050565b6000819050919050565b61088b81610878565b811461089657600080fd5b50565b6000813590506108a881610882565b92915050565b6000602082840312156108c4576108c36107e3565b5b60006108d284828501610899565b91505092915050565b6108e48161080d565b82525050565b60006020820190506108ff60008301846108db565b92915050565b600081519050919050565b600082825260208201905092915050565b6000819050602082019050919050565b600081519050919050565b600082825260208201905092915050565b60005b8381101561096b578082015181840152602081019050610950565b60008484015250505050565b6000601f19601f8301169050919050565b600061099382610931565b61099d818561093c565b93506109ad81856020860161094d565b6109b681610977565b840191505092915050565b6109ca8161080d565b82525050565b6109d981610878565b82525050565b600060608301600083015184820360008601526109fc8282610988565b9150506020830151610a1160208601826109c1565b506040830151610a2460408601826109d0565b508091505092915050565b6000610a3b83836109df565b905092915050565b6000602082019050919050565b6000610a5b82610905565b610a658185610910565b935083602082028501610a7785610921565b8060005b85811015610ab35784840389528151610a948582610a2f565b9450610a9f83610a43565b925060208a01995050600181019050610a7b565b50829750879550505050505092915050565b60006020820190508181036000830152610adf8184610a50565b905092915050565b600082825260208201905092915050565b6000610b0382610931565b610b0d8185610ae7565b9350610b1d81856020860161094d565b610b2681610977565b840191505092915050565b610b3a81610878565b82525050565b60006060820190508181036000830152610b5a8186610af8565b9050610b6960208301856108db565b610b766040830184610b31565b949350505050565b600080fd5b600080fd5b7f4e487b7100000000000000000000000000000000000000000000000000000000600052604160045260246000fd5b610bc082610977565b810181811067ffffffffffffffff82111715610bdf57610bde610b88565b5b80604052505050565b6000610bf26107d9565b9050610bfe8282610bb7565b919050565b600067ffffffffffffffff821115610c1e57610c1d610b88565b5b610c2782610977565b9050602081019050919050565b82818337600083830152505050565b6000610c56610c5184610c03565b610be8565b905082815260208101848484011115610c7257610c71610b83565b5b610c7d848285610c34565b509392505050565b600082601f830112610c9a57610c99610b7e565b5b8135610caa848260208601610c43565b91505092915050565b600060208284031215610cc957610cc86107e3565b5b600082013567ffffffffffffffff811115610ce757610ce66107e8565b5b610cf384828501610c85565b91505092915050565b7f596f75206861766520616c726561647920766f7465642e000000000000000000600082015250565b6000610d32601783610ae7565b9150610d3d82610cfc565b602082019050919050565b60006020820190508181036000830152610d6181610d25565b9050919050565b7f4e487b7100000000000000000000000000000000000000000000000000000000600052601160045260246000fd5b6000610da282610878565b9150610dad83610878565b9250828201905080821115610dc557610dc4610d68565b5b92915050565b7f4e487b7100000000000000000000000000000000000000000000000000000000600052602260045260246000fd5b60006002820490506001821680610e1257607f821691505b602082108103610e2557610e24610dcb565b5b50919050565b7f4e487b7100000000000000000000000000000000000000000000000000000000600052603260045260246000fd5b6000610e6582610878565b91507fffffffffffffffffffffffffffffffffffffffffffffffffffffffffffffffff8203610e9757610e96610d68565b5b600182019050919050565b7f4e616d65206d757374206e6f7420626520656d70747900000000000000000000600082015250565b6000610ed8601683610ae7565b9150610ee382610ea2565b602082019050919050565b60006020820190508181036000830152610f0781610ecb565b9050919050565b60008190508160005260206000209050919050565b60006020601f8301049050919050565b600082821b905092915050565b600060088302610f707fffffffffffffffffffffffffffffffffffffffffffffffffffffffffffffffff82610f33565b610f7a8683610f33565b95508019841693508086168417925050509392505050565b6000819050919050565b6000610fb7610fb2610fad84610878565b610f92565b610878565b9050919050565b6000819050919050565b610fd183610f9c565b610fe5610fdd82610fbe565b848454610f40565b825550505050565b600090565b610ffa610fed565b611005818484610fc8565b505050565b5b818110156110295761101e600082610ff2565b60018101905061100b565b5050565b601f82111561106e5761103f81610f0e565b61104884610f23565b81016020851015611057578190505b61106b61106385610f23565b83018261100a565b50505b505050565b600082821c905092915050565b600061109160001984600802611073565b1980831691505092915050565b60006110aa8383611080565b9150826002028217905092915050565b6110c382610931565b67ffffffffffffffff8111156110dc576110db610b88565b5b6110e68254610dfa565b6110f182828561102d565b600060209050601f8311600181146111245760008415611112578287015190505b61111c858261109e565b865550611184565b601f19841661113286610f0e565b60005b8281101561115a57848901518255600182019150602085019450602081019050611135565b868310156111775784890151611173601f891682611080565b8355505b6001600288020188555050505b50505050505056fea2646970667358221220e0e9a20b58efb0163d414bb0b9efdd9bba732302eac8879b084bbcbfae20398f64736f6c63430008110033",
  "immutableReferences": {},
  "source": "//SPDX-License-Identifier: MIT\npragma solidity ^0.8.0;\n\ncontract Award {\n    struct Entrepreneur {\n        string name;\n        address account;\n        uint points;\n    }\n\n    mapping(address => Entrepreneur) public entrepreneurs;\n    mapping(address => bool) hasVoted;\n    uint numEntrepreneurs;\n    mapping(uint256 => address) public entrepreneurAddresses;\n\n    function createEntrepreneur(string memory _name) public {\n        require(bytes(_name).length > 0, \"Name must not be empty\");\n        entrepreneurs[msg.sender] = Entrepreneur(_name, msg.sender, 0);\n        entrepreneurAddresses[numEntrepreneurs] = msg.sender;\n        numEntrepreneurs++;\n    }\n\n\n    function getEntrepreneurs() public view returns (Entrepreneur[] memory) {\n        Entrepreneur[] memory entrepreneurList = new Entrepreneur[](numEntrepreneurs);\n        uint index = 0;\n        for (uint i = 0; i < numEntrepreneurs; i++) {\n            address entrepreneurAddress = entrepreneurAddresses[i];\n            if (entrepreneurs[entrepreneurAddress].account != address(0)) {\n                entrepreneurList[index] = entrepreneurs[entrepreneurAddress];\n                index++;\n            }\n        }\n        return entrepreneurList;\n    }\n\n    function awardPoints(address _entrepreneur) public {\n        require(!hasVoted[msg.sender], \"You have already voted.\");\n        entrepreneurs[_entrepreneur].points += 1;\n        hasVoted[msg.sender] = true;\n    }\n}",
  "sourcePath": "/Users/anuragravindramahajan/InvestUp/investup/contracts/award.sol",
  "compiler": {
    "name": "solc",
    "version": "0.8.17+commit.8df45f5f.Emscripten.clang"
  },
  "schemaVersion": "3.4.11",
  "updatedAt": "2023-04-07T12:22:02.265Z",
  "networkType": "ethereum",
  "devdoc": {
    "kind": "dev",
    "methods": {},
    "version": 1
  },
  "userdoc": {
    "kind": "user",
    "methods": {},
    "version": 1
  }
}